:040000003CEF01F0E0
:0600080004EF02F01200FB
:060018000CEF02F01200E3
:06002A00242B2B2B2055B6
:10003000706C6F6164696E67204E657720466972E7
:100040006D77617265202B2B2B2A00000900F55279
:100050000DE0F6CF06F0F7CF07F0F550A4A8FED7D5
:10006000736E06C0F6FF07C0F7FFF0D712004E6AA6
:100070004D6A4D5001081CE34BC0E9FF4CC0EAFF3C
:10008000EFCF4FF04F50400805E2410E4F5C0A0F92
:100090004F6E02D0300E4F5E4E38006EF00E0016DE
:1000A00000504F104E6E4B2AD8B44C2A4D2AE1D73F
:1000B0004EC001F01200496A4A6A040E48244A5CA4
:1000C00001E00DE247C04CF046C04BF0D0DF0150DC
:1000D0004926020E4626000E47224A2AEED749C07C
:1000E00001F01200A4A8FED7736E1200F250036E46
:1000F000F29EA68EA6840F01550EA76EAA0EA76EBD
:10010000A68200000350F21200011200D08CA69CBF
:10011000F6503F0B006EC00EF6160A0046C001F006
:10012000006607D0EECFF5FF015204E00F00010694
:1001300003D000060B000C003F0EF6143F0AF0E15E
:10014000A688D4DFD3DF0166EBD7F86A12000C6A09
:100150004390456A446A43B08ED00F6AA4AAFED782
:1001600074CF42F0036A0F50100FE96E000E0320A7
:10017000EA6E42C0EFFF0F2A42500A08EFE14C6AD4
:10018000110E4B6E74DF01C00DF0476A110E466E02
:100190000DC048F090DF015203E0150EA3DF6AD0D6
:1001A0004C6A130E4B6E63DF01C046F04C6A150EAD
:1001B0004B6E5DDF46C00BF001C00AF0096A0CC04F
:1001C00008F00AC006F00BC007F04C6A170E4B6E21
:1001D0004EDF01C00EF00E523EE10C502F083AE304
:1001E000095205E1085203E10750030833E20F6AA0
:1001F0000D500F5C23E2036A0F50100F016E000ECA
:10020000032201C046F003C047F0D8900F34090F15
:10021000036A100F016E000E032201C048F003C0F4
:1002200049F003C04CF001C04BF021DF47C0EAFFAA
:1002300046C0E9FF01C0EFFF0F2ADAD708C0F8FF78
:1002400007C0F7FF06C0F6FFEA6A100EE96E0DC0A0
:1002500046F05CDF0DD00E2C02D0438009D00E504A
:10026000040806E14C6A1B0E4B6E01DF01C00CF066
:10027000060E38DF70D71200F86AD09E7086560ED0
:10028000756E000E766EA60E726E900E716E056A19
:10029000046A0F01386B396B3A6B3B6B3C6B776AC6
:1002A000786A796AC290F2CF06F0F29EAA6AA968CB
:1002B000A69CA69EA680A85006BEF28E310808E134
:1002C0002A0EF66E000EF76E0001C0DE40DF0F0151
:0802D000000100EF02F0FFD76E
:04040000FFD7120010
:020000040030CA
:0E00000000E2193C003F00000FC00FE00F406F
:00000001FF
;PIC18F46K22
;CRC=A3F5  CREATED="12-Dec-16 01:39"
